{
  "contractName": "Cryptolance",
  "abi": [
    {
      "inputs": [
        {
          "internalType": "string",
          "name": "email",
          "type": "string"
        }
      ],
      "name": "registerFreelancer",
      "outputs": [],
      "stateMutability": "nonpayable",
      "type": "function"
    },
    {
      "inputs": [
        {
          "internalType": "string",
          "name": "email",
          "type": "string"
        }
      ],
      "name": "registerEmployer",
      "outputs": [],
      "stateMutability": "nonpayable",
      "type": "function"
    },
    {
      "inputs": [
        {
          "internalType": "string",
          "name": "id",
          "type": "string"
        },
        {
          "internalType": "string",
          "name": "title",
          "type": "string"
        },
        {
          "internalType": "bytes",
          "name": "ipfsDescription",
          "type": "bytes"
        },
        {
          "internalType": "bytes",
          "name": "ipfsFiles",
          "type": "bytes"
        },
        {
          "internalType": "uint256",
          "name": "amount",
          "type": "uint256"
        },
        {
          "internalType": "address",
          "name": "awardedTo",
          "type": "address"
        }
      ],
      "name": "addProject",
      "outputs": [],
      "stateMutability": "payable",
      "type": "function",
      "payable": true
    },
    {
      "inputs": [
        {
          "internalType": "string",
          "name": "id",
          "type": "string"
        }
      ],
      "name": "releasePayment",
      "outputs": [],
      "stateMutability": "nonpayable",
      "type": "function"
    },
    {
      "inputs": [
        {
          "internalType": "address",
          "name": "employer",
          "type": "address"
        },
        {
          "internalType": "string",
          "name": "id",
          "type": "string"
        }
      ],
      "name": "completeProject",
      "outputs": [],
      "stateMutability": "payable",
      "type": "function",
      "payable": true
    }
  ],
  "bytecode": "0x608060405234801561001057600080fd5b5061149a806100206000396000f3fe60806040526004361061004a5760003560e01c80632b71bb1b1461004f5780633b417cd61461006b57806398329b2014610094578063a6b16096146100b0578063bb58be78146100d9575b600080fd5b61006960048036038101906100649190610aae565b610102565b005b34801561007757600080fd5b50610092600480360381019061008d9190610bab565b6102c2565b005b6100ae60048036038101906100a99190610bf4565b6103eb565b005b3480156100bc57600080fd5b506100d760048036038101906100d29190610bab565b6105cd565b005b3480156100e557600080fd5b5061010060048036038101906100fb9190610bab565b6106f8565b005b81341015610145576040517f08c379a000000000000000000000000000000000000000000000000000000000815260040161013c90610cd3565b60405180910390fd5b6040518060e00160405280878152602001868152602001858152602001848152602001838152602001600160ff1681526020018273ffffffffffffffffffffffffffffffffffffffff16815250600260003373ffffffffffffffffffffffffffffffffffffffff1673ffffffffffffffffffffffffffffffffffffffff168152602001908152602001600020876040516101df9190610d64565b908152602001604051809103902060008201518160000190816102029190610f87565b5060208201518160010190816102189190610f87565b50604082015181600201908161022e91906110bf565b50606082015181600301908161024491906110bf565b506080820151816004015560a08201518160050160006101000a81548160ff021916908360ff16021790555060c08201518160050160016101000a81548173ffffffffffffffffffffffffffffffffffffffff021916908373ffffffffffffffffffffffffffffffffffffffff160217905550905050505050505050565b60001515600160003373ffffffffffffffffffffffffffffffffffffffff1673ffffffffffffffffffffffffffffffffffffffff16815260200190815260200160002060010160009054906101000a900460ff16151514610358576040517f08c379a000000000000000000000000000000000000000000000000000000000815260040161034f906111dd565b60405180910390fd5b604051806040016040528082815260200160011515815250600160003373ffffffffffffffffffffffffffffffffffffffff1673ffffffffffffffffffffffffffffffffffffffff16815260200190815260200160002060008201518160000190816103c49190610f87565b5060208201518160010160006101000a81548160ff02191690831515021790555090505050565b6000479050670de0b6b3a7640000600260008573ffffffffffffffffffffffffffffffffffffffff1673ffffffffffffffffffffffffffffffffffffffff168152602001908152602001600020836040516104469190610d64565b908152602001604051809103902060040154610462919061122c565b8110156104a4576040517f08c379a000000000000000000000000000000000000000000000000000000000815260040161049b906112ba565b60405180910390fd5b600033905060008173ffffffffffffffffffffffffffffffffffffffff16670de0b6b3a7640000600260008873ffffffffffffffffffffffffffffffffffffffff1673ffffffffffffffffffffffffffffffffffffffff168152602001908152602001600020866040516105189190610d64565b908152602001604051809103902060040154610534919061122c565b6040516105409061130b565b60006040518083038185875af1925050503d806000811461057d576040519150601f19603f3d011682016040523d82523d6000602084013e610582565b606091505b50509050806105c6576040517f08c379a00000000000000000000000000000000000000000000000000000000081526004016105bd9061136c565b60405180910390fd5b5050505050565b6001600260003373ffffffffffffffffffffffffffffffffffffffff1673ffffffffffffffffffffffffffffffffffffffff1681526020019081526020016000208260405161061c9190610d64565b908152602001604051809103902060050160009054906101000a900460ff1660ff161461067e576040517f08c379a0000000000000000000000000000000000000000000000000000000008152600401610675906113d8565b60405180910390fd5b60028060003373ffffffffffffffffffffffffffffffffffffffff1673ffffffffffffffffffffffffffffffffffffffff168152602001908152602001600020826040516106cc9190610d64565b908152602001604051809103902060050160006101000a81548160ff021916908360ff16021790555050565b600015156000803373ffffffffffffffffffffffffffffffffffffffff1673ffffffffffffffffffffffffffffffffffffffff16815260200190815260200160002060010160009054906101000a900460ff1615151461078d576040517f08c379a000000000000000000000000000000000000000000000000000000000815260040161078490611444565b60405180910390fd5b6040518060400160405280828152602001600115158152506000803373ffffffffffffffffffffffffffffffffffffffff1673ffffffffffffffffffffffffffffffffffffffff16815260200190815260200160002060008201518160000190816107f89190610f87565b5060208201518160010160006101000a81548160ff02191690831515021790555090505050565b6000604051905090565b600080fd5b600080fd5b600080fd5b600080fd5b6000601f19601f8301169050919050565b7f4e487b7100000000000000000000000000000000000000000000000000000000600052604160045260246000fd5b6108868261083d565b810181811067ffffffffffffffff821117156108a5576108a461084e565b5b80604052505050565b60006108b861081f565b90506108c4828261087d565b919050565b600067ffffffffffffffff8211156108e4576108e361084e565b5b6108ed8261083d565b9050602081019050919050565b82818337600083830152505050565b600061091c610917846108c9565b6108ae565b90508281526020810184848401111561093857610937610838565b5b6109438482856108fa565b509392505050565b600082601f8301126109605761095f610833565b5b8135610970848260208601610909565b91505092915050565b600067ffffffffffffffff8211156109945761099361084e565b5b61099d8261083d565b9050602081019050919050565b60006109bd6109b884610979565b6108ae565b9050828152602081018484840111156109d9576109d8610838565b5b6109e48482856108fa565b509392505050565b600082601f830112610a0157610a00610833565b5b8135610a118482602086016109aa565b91505092915050565b6000819050919050565b610a2d81610a1a565b8114610a3857600080fd5b50565b600081359050610a4a81610a24565b92915050565b600073ffffffffffffffffffffffffffffffffffffffff82169050919050565b6000610a7b82610a50565b9050919050565b610a8b81610a70565b8114610a9657600080fd5b50565b600081359050610aa881610a82565b92915050565b60008060008060008060c08789031215610acb57610aca610829565b5b600087013567ffffffffffffffff811115610ae957610ae861082e565b5b610af589828a0161094b565b965050602087013567ffffffffffffffff811115610b1657610b1561082e565b5b610b2289828a0161094b565b955050604087013567ffffffffffffffff811115610b4357610b4261082e565b5b610b4f89828a016109ec565b945050606087013567ffffffffffffffff811115610b7057610b6f61082e565b5b610b7c89828a016109ec565b9350506080610b8d89828a01610a3b565b92505060a0610b9e89828a01610a99565b9150509295509295509295565b600060208284031215610bc157610bc0610829565b5b600082013567ffffffffffffffff811115610bdf57610bde61082e565b5b610beb8482850161094b565b91505092915050565b60008060408385031215610c0b57610c0a610829565b5b6000610c1985828601610a99565b925050602083013567ffffffffffffffff811115610c3a57610c3961082e565b5b610c468582860161094b565b9150509250929050565b600082825260208201905092915050565b7f4574686572732073656e64206d7573742062652067726561746572207468616e60008201527f206f7220657175616c20746f20616d6f756e7400000000000000000000000000602082015250565b6000610cbd603383610c50565b9150610cc882610c61565b604082019050919050565b60006020820190508181036000830152610cec81610cb0565b9050919050565b600081519050919050565b600081905092915050565b60005b83811015610d27578082015181840152602081019050610d0c565b60008484015250505050565b6000610d3e82610cf3565b610d488185610cfe565b9350610d58818560208601610d09565b80840191505092915050565b6000610d708284610d33565b915081905092915050565b7f4e487b7100000000000000000000000000000000000000000000000000000000600052602260045260246000fd5b60006002820490506001821680610dc257607f821691505b602082108103610dd557610dd4610d7b565b5b50919050565b60008190508160005260206000209050919050565b60006020601f8301049050919050565b600082821b905092915050565b600060088302610e3d7fffffffffffffffffffffffffffffffffffffffffffffffffffffffffffffffff82610e00565b610e478683610e00565b95508019841693508086168417925050509392505050565b6000819050919050565b6000610e84610e7f610e7a84610a1a565b610e5f565b610a1a565b9050919050565b6000819050919050565b610e9e83610e69565b610eb2610eaa82610e8b565b848454610e0d565b825550505050565b600090565b610ec7610eba565b610ed2818484610e95565b505050565b5b81811015610ef657610eeb600082610ebf565b600181019050610ed8565b5050565b601f821115610f3b57610f0c81610ddb565b610f1584610df0565b81016020851015610f24578190505b610f38610f3085610df0565b830182610ed7565b50505b505050565b600082821c905092915050565b6000610f5e60001984600802610f40565b1980831691505092915050565b6000610f778383610f4d565b9150826002028217905092915050565b610f9082610cf3565b67ffffffffffffffff811115610fa957610fa861084e565b5b610fb38254610daa565b610fbe828285610efa565b600060209050601f831160018114610ff15760008415610fdf578287015190505b610fe98582610f6b565b865550611051565b601f198416610fff86610ddb565b60005b8281101561102757848901518255600182019150602085019450602081019050611002565b868310156110445784890151611040601f891682610f4d565b8355505b6001600288020188555050505b505050505050565b600081519050919050565b60008190508160005260206000209050919050565b601f8211156110ba5761108b81611064565b61109484610df0565b810160208510156110a3578190505b6110b76110af85610df0565b830182610ed7565b50505b505050565b6110c882611059565b67ffffffffffffffff8111156110e1576110e061084e565b5b6110eb8254610daa565b6110f6828285611079565b600060209050601f8311600181146111295760008415611117578287015190505b6111218582610f6b565b865550611189565b601f19841661113786611064565b60005b8281101561115f5784890151825560018201915060208501945060208101905061113a565b8683101561117c5784890151611178601f891682610f4d565b8355505b6001600288020188555050505b505050505050565b7f456d706c6f79657220616c726561647920726567697374657265642100000000600082015250565b60006111c7601c83610c50565b91506111d282611191565b602082019050919050565b600060208201905081810360008301526111f6816111ba565b9050919050565b7f4e487b7100000000000000000000000000000000000000000000000000000000600052601160045260246000fd5b600061123782610a1a565b915061124283610a1a565b925082820261125081610a1a565b91508282048414831517611267576112666111fd565b5b5092915050565b7f4572726f7221204e6f2042616c616e636520746f207769746864726177000000600082015250565b60006112a4601d83610c50565b91506112af8261126e565b602082019050919050565b600060208201905081810360008301526112d381611297565b9050919050565b600081905092915050565b50565b60006112f56000836112da565b9150611300826112e5565b600082019050919050565b6000611316826112e8565b9150819050919050565b7f5472616e73616374696f6e206661696c65640000000000000000000000000000600082015250565b6000611356601283610c50565b915061136182611320565b602082019050919050565b6000602082019050818103600083015261138581611349565b9050919050565b7f50726f6a656374206964206973206e6f742076616c6964000000000000000000600082015250565b60006113c2601783610c50565b91506113cd8261138c565b602082019050919050565b600060208201905081810360008301526113f1816113b5565b9050919050565b7f467265656c616e63657220616c72656164792072656769737465726564210000600082015250565b600061142e601e83610c50565b9150611439826113f8565b602082019050919050565b6000602082019050818103600083015261145d81611421565b905091905056fea264697066735822122064f41f8dda523b06e50e17adf67b6b202d3cbfff4310a8c6bb7900a8644b114a64736f6c63430008110033",
  "immutableReferences": {},
  "source": "// SPDX-License-Identifier: MIT\r\npragma solidity ^0.8.0;\r\n\r\ncontract Cryptolance {\r\n\r\n    struct Freelancer {\r\n        string email;\r\n        bool isRegistered;\r\n        // other data\r\n        \r\n    }\r\n\r\n    struct Employer {\r\n        string email;\r\n        bool isRegistered;\r\n        // other data\r\n    }\r\n\r\n    struct Project {\r\n        string id;\r\n        string title;\r\n        bytes ipfsDescription;\r\n        bytes ipfsFiles;\r\n        uint256 amount;\r\n        /*\r\n            status = 0, Mapping-check\r\n            status = 1, In-progress\r\n            status = 2, Completed - I\r\n            status = 3, Completed - II\r\n        */\r\n        uint8 status;\r\n        address awardedTo;\r\n    }\r\n\r\n    mapping(address => Freelancer) freelancers;\r\n    mapping(address => Employer) employers;\r\n    mapping(address => mapping(string => Project)) projects;\r\n\r\n    modifier onlyRegisteredFreelancer (address addr) {\r\n        require(\r\n            freelancers[addr].isRegistered == true,\r\n            \"Freelancer not registered\"\r\n        );\r\n        _;\r\n    }\r\n\r\n    modifier onlyRegisteredEmployer (address addr) {\r\n        require(\r\n            employers[addr].isRegistered == true,\r\n            \"Employer not registered\"\r\n        );\r\n        _;\r\n    }\r\n\r\n    function registerFreelancer(string memory email) external {\r\n        require(\r\n            freelancers[msg.sender].isRegistered == false,\r\n            \"Freelancer already registered!\"\r\n        );\r\n        freelancers[msg.sender] = Freelancer(email, true);\r\n    }\r\n\r\n    function registerEmployer(string memory email) external {\r\n        require(\r\n            employers[msg.sender].isRegistered == false,\r\n            \"Employer already registered!\"\r\n        );\r\n        employers[msg.sender] = Employer(email, true);\r\n    }\r\n\r\n    function addProject(\r\n        string memory id,\r\n        string memory title,\r\n        bytes memory ipfsDescription,\r\n        bytes memory ipfsFiles,\r\n        uint256 amount,\r\n        address awardedTo\r\n    ) external payable /** onlyRegisteredFreelancer(awardedTo) onlyRegisteredEmployer(msg.sender) */ {\r\n        \r\n        require(\r\n            msg.value >= amount,\r\n            \"Ethers send must be greater than or equal to amount\"\r\n        );\r\n\r\n        projects[msg.sender][id] = (Project(id, title, ipfsDescription, ipfsFiles, amount, 1, awardedTo));\r\n    }\r\n\r\n    function releasePayment(string memory id) external {\r\n        require(\r\n            projects[msg.sender][id].status == 1,\r\n            \"Project id is not valid\"\r\n        );\r\n        projects[msg.sender][id].status = 2;\r\n    }\r\n\r\n    function completeProject(address employer, string memory id) external payable {\r\n        // require(\r\n        //     projects[employer][id].status == 2,\r\n        //     \"Project id is not valid\"\r\n        // );\r\n\r\n        // require(projects[employer][id].awardedTo == msg.sender,\r\n        //     \"You are not authorized to complete this project\"\r\n        // );\r\n\r\n        // projects[msg.sender][id].status = 3;\r\n        uint balance = address(this).balance;\r\n        require(balance >= projects[employer][id].amount * 1000000000000000000, \"Error! No Balance to withdraw\");\r\n\r\n        address payable receiver = payable(msg.sender);\r\n        (bool success, ) = receiver.call{value: projects[employer][id].amount * 1000000000000000000}(\"\");\r\n        require(success, \"Transaction failed\");\r\n    }\r\n}",
  "sourcePath": "C:\\Users\\Admin\\Downloads\\cryptolance\\client\\truffle\\contracts\\Cryptolance.sol",
  "compiler": {
    "name": "solc",
    "version": "0.8.17+commit.8df45f5f.Emscripten.clang"
  },
  "schemaVersion": "3.4.10",
  "updatedAt": "2022-11-08T03:40:21.545Z",
  "networkType": "ethereum",
  "devdoc": {
    "kind": "dev",
    "methods": {},
    "version": 1
  },
  "userdoc": {
    "kind": "user",
    "methods": {},
    "version": 1
  }
}