{
  "contractName": "Cryptolance",
  "abi": [
    {
      "inputs": [
        {
          "internalType": "string",
          "name": "email",
          "type": "string"
        }
      ],
      "name": "registerFreelancer",
      "outputs": [],
      "stateMutability": "nonpayable",
      "type": "function"
    },
    {
      "inputs": [
        {
          "internalType": "string",
          "name": "email",
          "type": "string"
        }
      ],
      "name": "registerEmployer",
      "outputs": [],
      "stateMutability": "nonpayable",
      "type": "function"
    },
    {
      "inputs": [
        {
          "internalType": "string",
          "name": "id",
          "type": "string"
        },
        {
          "internalType": "string",
          "name": "title",
          "type": "string"
        },
        {
          "internalType": "bytes",
          "name": "ipfsDescription",
          "type": "bytes"
        },
        {
          "internalType": "bytes",
          "name": "ipfsFiles",
          "type": "bytes"
        },
        {
          "internalType": "uint256",
          "name": "amount",
          "type": "uint256"
        },
        {
          "internalType": "address",
          "name": "awardedTo",
          "type": "address"
        }
      ],
      "name": "addProject",
      "outputs": [],
      "stateMutability": "payable",
      "type": "function",
      "payable": true
    },
    {
      "inputs": [
        {
          "internalType": "string",
          "name": "id",
          "type": "string"
        }
      ],
      "name": "releasePayment",
      "outputs": [],
      "stateMutability": "nonpayable",
      "type": "function"
    },
    {
      "inputs": [
        {
          "internalType": "address",
          "name": "employer",
          "type": "address"
        },
        {
          "internalType": "string",
          "name": "id",
          "type": "string"
        }
      ],
      "name": "completeProject",
      "outputs": [],
      "stateMutability": "payable",
      "type": "function",
      "payable": true
    }
  ],
  "bytecode": "0x608060405234801561001057600080fd5b50611753806100206000396000f3fe60806040526004361061004a5760003560e01c80632b71bb1b1461004f5780633b417cd61461006b57806398329b2014610094578063a6b16096146100b0578063bb58be78146100d9575b600080fd5b61006960048036038101906100649190610cd5565b610102565b005b34801561007757600080fd5b50610092600480360381019061008d9190610dd2565b6102d5565b005b6100ae60048036038101906100a99190610e1b565b6103fe565b005b3480156100bc57600080fd5b506100d760048036038101906100d29190610dd2565b6107f4565b005b3480156100e557600080fd5b5061010060048036038101906100fb9190610dd2565b61091f565b005b670de0b6b3a7640000826101169190610ea6565b341015610158576040517f08c379a000000000000000000000000000000000000000000000000000000000815260040161014f90610f6b565b60405180910390fd5b6040518060e00160405280878152602001868152602001858152602001848152602001838152602001600160ff1681526020018273ffffffffffffffffffffffffffffffffffffffff16815250600260003373ffffffffffffffffffffffffffffffffffffffff1673ffffffffffffffffffffffffffffffffffffffff168152602001908152602001600020876040516101f29190610ffc565b90815260200160405180910390206000820151816000019081610215919061121f565b50602082015181600101908161022b919061121f565b5060408201518160020190816102419190611357565b5060608201518160030190816102579190611357565b506080820151816004015560a08201518160050160006101000a81548160ff021916908360ff16021790555060c08201518160050160016101000a81548173ffffffffffffffffffffffffffffffffffffffff021916908373ffffffffffffffffffffffffffffffffffffffff160217905550905050505050505050565b60001515600160003373ffffffffffffffffffffffffffffffffffffffff1673ffffffffffffffffffffffffffffffffffffffff16815260200190815260200160002060010160009054906101000a900460ff1615151461036b576040517f08c379a000000000000000000000000000000000000000000000000000000000815260040161036290611475565b60405180910390fd5b604051806040016040528082815260200160011515815250600160003373ffffffffffffffffffffffffffffffffffffffff1673ffffffffffffffffffffffffffffffffffffffff16815260200190815260200160002060008201518160000190816103d7919061121f565b5060208201518160010160006101000a81548160ff02191690831515021790555090505050565b60028060008473ffffffffffffffffffffffffffffffffffffffff1673ffffffffffffffffffffffffffffffffffffffff1681526020019081526020016000208260405161044c9190610ffc565b908152602001604051809103902060050160009054906101000a900460ff1660ff16146104ae576040517f08c379a00000000000000000000000000000000000000000000000000000000081526004016104a5906114e1565b60405180910390fd5b3373ffffffffffffffffffffffffffffffffffffffff16600260008473ffffffffffffffffffffffffffffffffffffffff1673ffffffffffffffffffffffffffffffffffffffff168152602001908152602001600020826040516105129190610ffc565b908152602001604051809103902060050160019054906101000a900473ffffffffffffffffffffffffffffffffffffffff1673ffffffffffffffffffffffffffffffffffffffff161461059a576040517f08c379a000000000000000000000000000000000000000000000000000000000815260040161059190611573565b60405180910390fd5b6003600260003373ffffffffffffffffffffffffffffffffffffffff1673ffffffffffffffffffffffffffffffffffffffff168152602001908152602001600020826040516105e99190610ffc565b908152602001604051809103902060050160006101000a81548160ff021916908360ff1602179055506000479050670de0b6b3a7640000600260008573ffffffffffffffffffffffffffffffffffffffff1673ffffffffffffffffffffffffffffffffffffffff1681526020019081526020016000208360405161066d9190610ffc565b9081526020016040518091039020600401546106899190610ea6565b8110156106cb576040517f08c379a00000000000000000000000000000000000000000000000000000000081526004016106c2906115df565b60405180910390fd5b600033905060008173ffffffffffffffffffffffffffffffffffffffff16670de0b6b3a7640000600260008873ffffffffffffffffffffffffffffffffffffffff1673ffffffffffffffffffffffffffffffffffffffff1681526020019081526020016000208660405161073f9190610ffc565b90815260200160405180910390206004015461075b9190610ea6565b60405161076790611630565b60006040518083038185875af1925050503d80600081146107a4576040519150601f19603f3d011682016040523d82523d6000602084013e6107a9565b606091505b50509050806107ed576040517f08c379a00000000000000000000000000000000000000000000000000000000081526004016107e490611691565b60405180910390fd5b5050505050565b6001600260003373ffffffffffffffffffffffffffffffffffffffff1673ffffffffffffffffffffffffffffffffffffffff168152602001908152602001600020826040516108439190610ffc565b908152602001604051809103902060050160009054906101000a900460ff1660ff16146108a5576040517f08c379a000000000000000000000000000000000000000000000000000000000815260040161089c906114e1565b60405180910390fd5b60028060003373ffffffffffffffffffffffffffffffffffffffff1673ffffffffffffffffffffffffffffffffffffffff168152602001908152602001600020826040516108f39190610ffc565b908152602001604051809103902060050160006101000a81548160ff021916908360ff16021790555050565b600015156000803373ffffffffffffffffffffffffffffffffffffffff1673ffffffffffffffffffffffffffffffffffffffff16815260200190815260200160002060010160009054906101000a900460ff161515146109b4576040517f08c379a00000000000000000000000000000000000000000000000000000000081526004016109ab906116fd565b60405180910390fd5b6040518060400160405280828152602001600115158152506000803373ffffffffffffffffffffffffffffffffffffffff1673ffffffffffffffffffffffffffffffffffffffff1681526020019081526020016000206000820151816000019081610a1f919061121f565b5060208201518160010160006101000a81548160ff02191690831515021790555090505050565b6000604051905090565b600080fd5b600080fd5b600080fd5b600080fd5b6000601f19601f8301169050919050565b7f4e487b7100000000000000000000000000000000000000000000000000000000600052604160045260246000fd5b610aad82610a64565b810181811067ffffffffffffffff82111715610acc57610acb610a75565b5b80604052505050565b6000610adf610a46565b9050610aeb8282610aa4565b919050565b600067ffffffffffffffff821115610b0b57610b0a610a75565b5b610b1482610a64565b9050602081019050919050565b82818337600083830152505050565b6000610b43610b3e84610af0565b610ad5565b905082815260208101848484011115610b5f57610b5e610a5f565b5b610b6a848285610b21565b509392505050565b600082601f830112610b8757610b86610a5a565b5b8135610b97848260208601610b30565b91505092915050565b600067ffffffffffffffff821115610bbb57610bba610a75565b5b610bc482610a64565b9050602081019050919050565b6000610be4610bdf84610ba0565b610ad5565b905082815260208101848484011115610c0057610bff610a5f565b5b610c0b848285610b21565b509392505050565b600082601f830112610c2857610c27610a5a565b5b8135610c38848260208601610bd1565b91505092915050565b6000819050919050565b610c5481610c41565b8114610c5f57600080fd5b50565b600081359050610c7181610c4b565b92915050565b600073ffffffffffffffffffffffffffffffffffffffff82169050919050565b6000610ca282610c77565b9050919050565b610cb281610c97565b8114610cbd57600080fd5b50565b600081359050610ccf81610ca9565b92915050565b60008060008060008060c08789031215610cf257610cf1610a50565b5b600087013567ffffffffffffffff811115610d1057610d0f610a55565b5b610d1c89828a01610b72565b965050602087013567ffffffffffffffff811115610d3d57610d3c610a55565b5b610d4989828a01610b72565b955050604087013567ffffffffffffffff811115610d6a57610d69610a55565b5b610d7689828a01610c13565b945050606087013567ffffffffffffffff811115610d9757610d96610a55565b5b610da389828a01610c13565b9350506080610db489828a01610c62565b92505060a0610dc589828a01610cc0565b9150509295509295509295565b600060208284031215610de857610de7610a50565b5b600082013567ffffffffffffffff811115610e0657610e05610a55565b5b610e1284828501610b72565b91505092915050565b60008060408385031215610e3257610e31610a50565b5b6000610e4085828601610cc0565b925050602083013567ffffffffffffffff811115610e6157610e60610a55565b5b610e6d85828601610b72565b9150509250929050565b7f4e487b7100000000000000000000000000000000000000000000000000000000600052601160045260246000fd5b6000610eb182610c41565b9150610ebc83610c41565b9250828202610eca81610c41565b91508282048414831517610ee157610ee0610e77565b5b5092915050565b600082825260208201905092915050565b7f4574686572732073656e64206d7573742062652067726561746572207468616e60008201527f206f7220657175616c20746f20616d6f756e7400000000000000000000000000602082015250565b6000610f55603383610ee8565b9150610f6082610ef9565b604082019050919050565b60006020820190508181036000830152610f8481610f48565b9050919050565b600081519050919050565b600081905092915050565b60005b83811015610fbf578082015181840152602081019050610fa4565b60008484015250505050565b6000610fd682610f8b565b610fe08185610f96565b9350610ff0818560208601610fa1565b80840191505092915050565b60006110088284610fcb565b915081905092915050565b7f4e487b7100000000000000000000000000000000000000000000000000000000600052602260045260246000fd5b6000600282049050600182168061105a57607f821691505b60208210810361106d5761106c611013565b5b50919050565b60008190508160005260206000209050919050565b60006020601f8301049050919050565b600082821b905092915050565b6000600883026110d57fffffffffffffffffffffffffffffffffffffffffffffffffffffffffffffffff82611098565b6110df8683611098565b95508019841693508086168417925050509392505050565b6000819050919050565b600061111c61111761111284610c41565b6110f7565b610c41565b9050919050565b6000819050919050565b61113683611101565b61114a61114282611123565b8484546110a5565b825550505050565b600090565b61115f611152565b61116a81848461112d565b505050565b5b8181101561118e57611183600082611157565b600181019050611170565b5050565b601f8211156111d3576111a481611073565b6111ad84611088565b810160208510156111bc578190505b6111d06111c885611088565b83018261116f565b50505b505050565b600082821c905092915050565b60006111f6600019846008026111d8565b1980831691505092915050565b600061120f83836111e5565b9150826002028217905092915050565b61122882610f8b565b67ffffffffffffffff81111561124157611240610a75565b5b61124b8254611042565b611256828285611192565b600060209050601f8311600181146112895760008415611277578287015190505b6112818582611203565b8655506112e9565b601f19841661129786611073565b60005b828110156112bf5784890151825560018201915060208501945060208101905061129a565b868310156112dc57848901516112d8601f8916826111e5565b8355505b6001600288020188555050505b505050505050565b600081519050919050565b60008190508160005260206000209050919050565b601f82111561135257611323816112fc565b61132c84611088565b8101602085101561133b578190505b61134f61134785611088565b83018261116f565b50505b505050565b611360826112f1565b67ffffffffffffffff81111561137957611378610a75565b5b6113838254611042565b61138e828285611311565b600060209050601f8311600181146113c157600084156113af578287015190505b6113b98582611203565b865550611421565b601f1984166113cf866112fc565b60005b828110156113f7578489015182556001820191506020850194506020810190506113d2565b868310156114145784890151611410601f8916826111e5565b8355505b6001600288020188555050505b505050505050565b7f456d706c6f79657220616c726561647920726567697374657265642100000000600082015250565b600061145f601c83610ee8565b915061146a82611429565b602082019050919050565b6000602082019050818103600083015261148e81611452565b9050919050565b7f50726f6a656374206964206973206e6f742076616c6964000000000000000000600082015250565b60006114cb601783610ee8565b91506114d682611495565b602082019050919050565b600060208201905081810360008301526114fa816114be565b9050919050565b7f596f7520617265206e6f7420617574686f72697a656420746f20636f6d706c6560008201527f746520746869732070726f6a6563740000000000000000000000000000000000602082015250565b600061155d602f83610ee8565b915061156882611501565b604082019050919050565b6000602082019050818103600083015261158c81611550565b9050919050565b7f4572726f7221204e6f2042616c616e636520746f207769746864726177000000600082015250565b60006115c9601d83610ee8565b91506115d482611593565b602082019050919050565b600060208201905081810360008301526115f8816115bc565b9050919050565b600081905092915050565b50565b600061161a6000836115ff565b91506116258261160a565b600082019050919050565b600061163b8261160d565b9150819050919050565b7f5472616e73616374696f6e206661696c65640000000000000000000000000000600082015250565b600061167b601283610ee8565b915061168682611645565b602082019050919050565b600060208201905081810360008301526116aa8161166e565b9050919050565b7f467265656c616e63657220616c72656164792072656769737465726564210000600082015250565b60006116e7601e83610ee8565b91506116f2826116b1565b602082019050919050565b60006020820190508181036000830152611716816116da565b905091905056fea2646970667358221220eab04e1d99e3fa56da333d8da5afda46aa213dde1fd8b1c3d91ec380984c8a5b64736f6c63430008110033",
  "immutableReferences": {},
  "source": "// SPDX-License-Identifier: MIT\r\npragma solidity ^0.8.0;\r\n\r\ncontract Cryptolance {\r\n\r\n    struct Freelancer {\r\n        string email;\r\n        bool isRegistered;\r\n        // other data\r\n    }\r\n\r\n    struct Employer {\r\n        string email;\r\n        bool isRegistered;\r\n        // other data\r\n    }\r\n\r\n    struct Project {\r\n        string id;\r\n        string title;\r\n        bytes ipfsDescription;\r\n        bytes ipfsFiles;\r\n        uint256 amount;\r\n        /*\r\n            status = 0, Mapping-check\r\n            status = 1, In-progress\r\n            status = 2, Completed - I\r\n            status = 3, Completed - II\r\n        */\r\n        uint8 status;\r\n        address awardedTo;\r\n    }\r\n\r\n    mapping(address => Freelancer) freelancers;\r\n    mapping(address => Employer) employers;\r\n    mapping(address => mapping(string => Project)) projects;\r\n\r\n    modifier onlyRegisteredFreelancer (address addr) {\r\n        require(\r\n            freelancers[addr].isRegistered == true,\r\n            \"Freelancer not registered\"\r\n        );\r\n        _;\r\n    }\r\n\r\n    modifier onlyRegisteredEmployer (address addr) {\r\n        require(\r\n            employers[addr].isRegistered == true,\r\n            \"Employer not registered\"\r\n        );\r\n        _;\r\n    }\r\n\r\n    function registerFreelancer(string memory email) external {\r\n        require(\r\n            freelancers[msg.sender].isRegistered == false,\r\n            \"Freelancer already registered!\"\r\n        );\r\n        freelancers[msg.sender] = Freelancer(email, true);\r\n    }\r\n\r\n    function registerEmployer(string memory email) external {\r\n        require(\r\n            employers[msg.sender].isRegistered == false,\r\n            \"Employer already registered!\"\r\n        );\r\n        employers[msg.sender] = Employer(email, true);\r\n    }\r\n\r\n    function addProject(\r\n        string memory id,\r\n        string memory title,\r\n        bytes memory ipfsDescription,\r\n        bytes memory ipfsFiles,\r\n        uint256 amount,\r\n        address awardedTo\r\n    ) external payable /** onlyRegisteredFreelancer(awardedTo) onlyRegisteredEmployer(msg.sender) */ {\r\n        \r\n        require(\r\n            msg.value >= amount * (10 ** 18),\r\n            \"Ethers send must be greater than or equal to amount\"\r\n        );\r\n\r\n        projects[msg.sender][id] = (Project(id, title, ipfsDescription, ipfsFiles, amount, 1, awardedTo));\r\n    }\r\n\r\n    function releasePayment(string memory id) external {\r\n        require(\r\n            projects[msg.sender][id].status == 1,\r\n            \"Project id is not valid\"\r\n        );\r\n        projects[msg.sender][id].status = 2;\r\n    }\r\n\r\n    function completeProject(address employer, string memory id) external payable {\r\n        require(\r\n            projects[employer][id].status == 2,\r\n            \"Project id is not valid\"\r\n        );\r\n\r\n        require(projects[employer][id].awardedTo == msg.sender,\r\n            \"You are not authorized to complete this project\"\r\n        );\r\n\r\n        projects[msg.sender][id].status = 3;\r\n        uint balance = address(this).balance;\r\n        require(balance >= projects[employer][id].amount * 1000000000000000000, \"Error! No Balance to withdraw\");\r\n\r\n        address payable receiver = payable(msg.sender);\r\n        (bool success, ) = receiver.call{value: projects[employer][id].amount * 1000000000000000000}(\"\");\r\n        require(success, \"Transaction failed\");\r\n    }\r\n}",
  "sourcePath": "C:\\Users\\Admin\\Downloads\\cryptolance\\client\\truffle\\contracts\\Cryptolance.sol",
  "compiler": {
    "name": "solc",
    "version": "0.8.17+commit.8df45f5f.Emscripten.clang"
  },
  "schemaVersion": "3.4.10",
  "updatedAt": "2022-11-17T16:28:50.937Z",
  "networkType": "ethereum",
  "devdoc": {
    "kind": "dev",
    "methods": {},
    "version": 1
  },
  "userdoc": {
    "kind": "user",
    "methods": {},
    "version": 1
  }
}