{
  "contractName": "Cryptolance",
  "abi": [
    {
      "inputs": [
        {
          "internalType": "string",
          "name": "email",
          "type": "string"
        }
      ],
      "name": "registerFreelancer",
      "outputs": [],
      "stateMutability": "nonpayable",
      "type": "function"
    },
    {
      "inputs": [
        {
          "internalType": "string",
          "name": "email",
          "type": "string"
        }
      ],
      "name": "registerEmployer",
      "outputs": [],
      "stateMutability": "nonpayable",
      "type": "function"
    },
    {
      "inputs": [
        {
          "internalType": "string",
          "name": "title",
          "type": "string"
        },
        {
          "internalType": "bytes",
          "name": "ipfsDescription",
          "type": "bytes"
        },
        {
          "internalType": "bytes",
          "name": "ipfsFiles",
          "type": "bytes"
        },
        {
          "internalType": "uint256",
          "name": "amount",
          "type": "uint256"
        },
        {
          "internalType": "address",
          "name": "awardedTo",
          "type": "address"
        }
      ],
      "name": "addProject",
      "outputs": [],
      "stateMutability": "payable",
      "type": "function"
    }
  ],
  "bytecode": "0x608060405234801561001057600080fd5b50611026806100206000396000f3fe6080604052600436106100345760003560e01c806307846969146100395780633b417cd614610055578063bb58be781461007e575b600080fd5b610053600480360381019061004e9190610864565b6100a7565b005b34801561006157600080fd5b5061007c60048036038101906100779190610933565b610385565b005b34801561008a57600080fd5b506100a560048036038101906100a09190610933565b6104ae565b005b80600115156000808373ffffffffffffffffffffffffffffffffffffffff1673ffffffffffffffffffffffffffffffffffffffff16815260200190815260200160002060010160009054906101000a900460ff1615151461013d576040517f08c379a0000000000000000000000000000000000000000000000000000000008152600401610134906109d9565b60405180910390fd5b3360011515600160008373ffffffffffffffffffffffffffffffffffffffff1673ffffffffffffffffffffffffffffffffffffffff16815260200190815260200160002060010160009054906101000a900460ff161515146101d4576040517f08c379a00000000000000000000000000000000000000000000000000000000081526004016101cb90610a45565b60405180910390fd5b83341015610217576040517f08c379a000000000000000000000000000000000000000000000000000000000815260040161020e90610ad7565b60405180910390fd5b600260003373ffffffffffffffffffffffffffffffffffffffff1673ffffffffffffffffffffffffffffffffffffffff1681526020019081526020016000206040518060c00160405280898152602001888152602001878152602001868152602001600160ff1681526020018573ffffffffffffffffffffffffffffffffffffffff16815250908060018154018082558091505060019003906000526020600020906005020160009091909190915060008201518160000190816102db9190610d0e565b5060208201518160010190816102f19190610e46565b5060408201518160020190816103079190610e46565b506060820151816003015560808201518160040160006101000a81548160ff021916908360ff16021790555060a08201518160040160016101000a81548173ffffffffffffffffffffffffffffffffffffffff021916908373ffffffffffffffffffffffffffffffffffffffff160217905550505050505050505050565b60001515600160003373ffffffffffffffffffffffffffffffffffffffff1673ffffffffffffffffffffffffffffffffffffffff16815260200190815260200160002060010160009054906101000a900460ff1615151461041b576040517f08c379a000000000000000000000000000000000000000000000000000000000815260040161041290610f64565b60405180910390fd5b604051806040016040528082815260200160011515815250600160003373ffffffffffffffffffffffffffffffffffffffff1673ffffffffffffffffffffffffffffffffffffffff16815260200190815260200160002060008201518160000190816104879190610d0e565b5060208201518160010160006101000a81548160ff02191690831515021790555090505050565b600015156000803373ffffffffffffffffffffffffffffffffffffffff1673ffffffffffffffffffffffffffffffffffffffff16815260200190815260200160002060010160009054906101000a900460ff16151514610543576040517f08c379a000000000000000000000000000000000000000000000000000000000815260040161053a90610fd0565b60405180910390fd5b6040518060400160405280828152602001600115158152506000803373ffffffffffffffffffffffffffffffffffffffff1673ffffffffffffffffffffffffffffffffffffffff16815260200190815260200160002060008201518160000190816105ae9190610d0e565b5060208201518160010160006101000a81548160ff02191690831515021790555090505050565b6000604051905090565b600080fd5b600080fd5b600080fd5b600080fd5b6000601f19601f8301169050919050565b7f4e487b7100000000000000000000000000000000000000000000000000000000600052604160045260246000fd5b61063c826105f3565b810181811067ffffffffffffffff8211171561065b5761065a610604565b5b80604052505050565b600061066e6105d5565b905061067a8282610633565b919050565b600067ffffffffffffffff82111561069a57610699610604565b5b6106a3826105f3565b9050602081019050919050565b82818337600083830152505050565b60006106d26106cd8461067f565b610664565b9050828152602081018484840111156106ee576106ed6105ee565b5b6106f98482856106b0565b509392505050565b600082601f830112610716576107156105e9565b5b81356107268482602086016106bf565b91505092915050565b600067ffffffffffffffff82111561074a57610749610604565b5b610753826105f3565b9050602081019050919050565b600061077361076e8461072f565b610664565b90508281526020810184848401111561078f5761078e6105ee565b5b61079a8482856106b0565b509392505050565b600082601f8301126107b7576107b66105e9565b5b81356107c7848260208601610760565b91505092915050565b6000819050919050565b6107e3816107d0565b81146107ee57600080fd5b50565b600081359050610800816107da565b92915050565b600073ffffffffffffffffffffffffffffffffffffffff82169050919050565b600061083182610806565b9050919050565b61084181610826565b811461084c57600080fd5b50565b60008135905061085e81610838565b92915050565b600080600080600060a086880312156108805761087f6105df565b5b600086013567ffffffffffffffff81111561089e5761089d6105e4565b5b6108aa88828901610701565b955050602086013567ffffffffffffffff8111156108cb576108ca6105e4565b5b6108d7888289016107a2565b945050604086013567ffffffffffffffff8111156108f8576108f76105e4565b5b610904888289016107a2565b9350506060610915888289016107f1565b92505060806109268882890161084f565b9150509295509295909350565b600060208284031215610949576109486105df565b5b600082013567ffffffffffffffff811115610967576109666105e4565b5b61097384828501610701565b91505092915050565b600082825260208201905092915050565b7f467265656c616e636572206e6f74207265676973746572656400000000000000600082015250565b60006109c360198361097c565b91506109ce8261098d565b602082019050919050565b600060208201905081810360008301526109f2816109b6565b9050919050565b7f456d706c6f796572206e6f742072656769737465726564000000000000000000600082015250565b6000610a2f60178361097c565b9150610a3a826109f9565b602082019050919050565b60006020820190508181036000830152610a5e81610a22565b9050919050565b7f4574686572732073656e64206d7573742062652067726561746572207468616e60008201527f206f7220657175616c20746f20616d6f756e7400000000000000000000000000602082015250565b6000610ac160338361097c565b9150610acc82610a65565b604082019050919050565b60006020820190508181036000830152610af081610ab4565b9050919050565b600081519050919050565b7f4e487b7100000000000000000000000000000000000000000000000000000000600052602260045260246000fd5b60006002820490506001821680610b4957607f821691505b602082108103610b5c57610b5b610b02565b5b50919050565b60008190508160005260206000209050919050565b60006020601f8301049050919050565b600082821b905092915050565b600060088302610bc47fffffffffffffffffffffffffffffffffffffffffffffffffffffffffffffffff82610b87565b610bce8683610b87565b95508019841693508086168417925050509392505050565b6000819050919050565b6000610c0b610c06610c01846107d0565b610be6565b6107d0565b9050919050565b6000819050919050565b610c2583610bf0565b610c39610c3182610c12565b848454610b94565b825550505050565b600090565b610c4e610c41565b610c59818484610c1c565b505050565b5b81811015610c7d57610c72600082610c46565b600181019050610c5f565b5050565b601f821115610cc257610c9381610b62565b610c9c84610b77565b81016020851015610cab578190505b610cbf610cb785610b77565b830182610c5e565b50505b505050565b600082821c905092915050565b6000610ce560001984600802610cc7565b1980831691505092915050565b6000610cfe8383610cd4565b9150826002028217905092915050565b610d1782610af7565b67ffffffffffffffff811115610d3057610d2f610604565b5b610d3a8254610b31565b610d45828285610c81565b600060209050601f831160018114610d785760008415610d66578287015190505b610d708582610cf2565b865550610dd8565b601f198416610d8686610b62565b60005b82811015610dae57848901518255600182019150602085019450602081019050610d89565b86831015610dcb5784890151610dc7601f891682610cd4565b8355505b6001600288020188555050505b505050505050565b600081519050919050565b60008190508160005260206000209050919050565b601f821115610e4157610e1281610deb565b610e1b84610b77565b81016020851015610e2a578190505b610e3e610e3685610b77565b830182610c5e565b50505b505050565b610e4f82610de0565b67ffffffffffffffff811115610e6857610e67610604565b5b610e728254610b31565b610e7d828285610e00565b600060209050601f831160018114610eb05760008415610e9e578287015190505b610ea88582610cf2565b865550610f10565b601f198416610ebe86610deb565b60005b82811015610ee657848901518255600182019150602085019450602081019050610ec1565b86831015610f035784890151610eff601f891682610cd4565b8355505b6001600288020188555050505b505050505050565b7f456d706c6f79657220616c726561647920726567697374657265642100000000600082015250565b6000610f4e601c8361097c565b9150610f5982610f18565b602082019050919050565b60006020820190508181036000830152610f7d81610f41565b9050919050565b7f467265656c616e63657220616c72656164792072656769737465726564210000600082015250565b6000610fba601e8361097c565b9150610fc582610f84565b602082019050919050565b60006020820190508181036000830152610fe981610fad565b905091905056fea26469706673582212209a2ed29d31aada8fa8e4afae57ff9874ae6e6b536d6143d2ee3780f9d9890e0864736f6c63430008110033",
  "immutableReferences": {},
  "source": "// SPDX-License-Identifier: MIT\r\npragma solidity ^0.8.0;\r\n\r\ncontract Cryptolance {\r\n\r\n    struct Freelancer {\r\n        string email;\r\n        bool isRegistered;\r\n        // other data\r\n        \r\n    }\r\n\r\n    struct Employer {\r\n        string email;\r\n        bool isRegistered;\r\n        // other data\r\n    }\r\n\r\n    struct Project {\r\n        string title;\r\n        bytes ipfsDescription;\r\n        bytes ipfsFiles;\r\n        uint256 amount;\r\n        /*\r\n            status = 0, Mapping-check\r\n            status = 1, In-progress\r\n            status = 2, Completed\r\n            status = 3, Dispute\r\n        */\r\n        uint8 status;\r\n        address awardedTo;\r\n    }\r\n\r\n    mapping(address => Freelancer) freelancers;\r\n    mapping(address => Employer) employers;\r\n    mapping(address => Project[]) projects;\r\n\r\n    modifier onlyRegisteredFreelancer (address addr) {\r\n        require(\r\n            freelancers[addr].isRegistered == true,\r\n            \"Freelancer not registered\"\r\n        );\r\n        _;\r\n    }\r\n\r\n    modifier onlyRegisteredEmployer (address addr) {\r\n        require(\r\n            employers[addr].isRegistered == true,\r\n            \"Employer not registered\"\r\n        );\r\n        _;\r\n    }\r\n\r\n    function registerFreelancer(string memory email) external {\r\n        require(\r\n            freelancers[msg.sender].isRegistered == false,\r\n            \"Freelancer already registered!\"\r\n        );\r\n        freelancers[msg.sender] = Freelancer(email, true);\r\n    }\r\n\r\n    function registerEmployer(string memory email) external {\r\n        require(\r\n            employers[msg.sender].isRegistered == false,\r\n            \"Employer already registered!\"\r\n        );\r\n        employers[msg.sender] = Employer(email, true);\r\n    }\r\n\r\n    function addProject(\r\n        string memory title,\r\n        bytes memory ipfsDescription,\r\n        bytes memory ipfsFiles,\r\n        uint256 amount,\r\n        address awardedTo\r\n    ) external payable onlyRegisteredFreelancer(awardedTo) onlyRegisteredEmployer(msg.sender) {\r\n        \r\n        require(\r\n            msg.value >= amount,\r\n            \"Ethers send must be greater than or equal to amount\"\r\n        );\r\n\r\n        projects[msg.sender].push(Project(title, ipfsDescription, ipfsFiles, amount, 1, awardedTo));\r\n    }\r\n}",
  "sourcePath": "C:\\Users\\Admin\\Downloads\\fiverr-block\\client\\truffle\\contracts\\Cryptolance.sol",
  "compiler": {
    "name": "solc",
    "version": "0.8.17+commit.8df45f5f.Emscripten.clang"
  },
  "schemaVersion": "3.4.10",
  "updatedAt": "2022-10-28T17:50:17.732Z",
  "devdoc": {
    "kind": "dev",
    "methods": {},
    "version": 1
  },
  "userdoc": {
    "kind": "user",
    "methods": {},
    "version": 1
  }
}