{
  "contractName": "Cryptolance",
  "abi": [
    {
      "inputs": [
        {
          "internalType": "string",
          "name": "email",
          "type": "string"
        }
      ],
      "name": "registerFreelancer",
      "outputs": [],
      "stateMutability": "nonpayable",
      "type": "function"
    },
    {
      "inputs": [
        {
          "internalType": "string",
          "name": "email",
          "type": "string"
        }
      ],
      "name": "registerEmployer",
      "outputs": [],
      "stateMutability": "nonpayable",
      "type": "function"
    },
    {
      "inputs": [
        {
          "internalType": "string",
          "name": "title",
          "type": "string"
        },
        {
          "internalType": "bytes",
          "name": "ipfsDescription",
          "type": "bytes"
        },
        {
          "internalType": "bytes",
          "name": "ipfsFiles",
          "type": "bytes"
        },
        {
          "internalType": "uint256",
          "name": "amount",
          "type": "uint256"
        },
        {
          "internalType": "address",
          "name": "awardedTo",
          "type": "address"
        }
      ],
      "name": "addProject",
      "outputs": [],
      "stateMutability": "payable",
      "type": "function",
      "payable": true
    },
    {
      "inputs": [
        {
          "internalType": "uint256",
          "name": "projectId",
          "type": "uint256"
        }
      ],
      "name": "releasePayment",
      "outputs": [],
      "stateMutability": "nonpayable",
      "type": "function"
    },
    {
      "inputs": [
        {
          "internalType": "address",
          "name": "employer",
          "type": "address"
        },
        {
          "internalType": "uint256",
          "name": "projectId",
          "type": "uint256"
        }
      ],
      "name": "completeProject",
      "outputs": [],
      "stateMutability": "nonpayable",
      "type": "function"
    }
  ],
  "bytecode": "0x608060405234801561001057600080fd5b50611427806100206000396000f3fe60806040526004361061004a5760003560e01c8063078469691461004f5780631f0195681461006b5780633b417cd61461009457806388685cd9146100bd578063bb58be78146100e6575b600080fd5b61006960048036038101906100649190610ba3565b61010f565b005b34801561007757600080fd5b50610092600480360381019061008d9190610c72565b6102be565b005b3480156100a057600080fd5b506100bb60048036038101906100b69190610cb2565b610591565b005b3480156100c957600080fd5b506100e460048036038101906100df9190610cfb565b6106ba565b005b3480156100f257600080fd5b5061010d60048036038101906101089190610cb2565b6107ed565b005b81341015610152576040517f08c379a000000000000000000000000000000000000000000000000000000000815260040161014990610dab565b60405180910390fd5b600260003373ffffffffffffffffffffffffffffffffffffffff1673ffffffffffffffffffffffffffffffffffffffff1681526020019081526020016000206040518060c00160405280878152602001868152602001858152602001848152602001600160ff1681526020018373ffffffffffffffffffffffffffffffffffffffff16815250908060018154018082558091505060019003906000526020600020906005020160009091909190915060008201518160000190816102169190610fe2565b50602082015181600101908161022c919061111a565b506040820151816002019081610242919061111a565b506060820151816003015560808201518160040160006101000a81548160ff021916908360ff16021790555060a08201518160040160016101000a81548173ffffffffffffffffffffffffffffffffffffffff021916908373ffffffffffffffffffffffffffffffffffffffff16021790555050505050505050565b60028060008473ffffffffffffffffffffffffffffffffffffffff1673ffffffffffffffffffffffffffffffffffffffff16815260200190815260200160002082815481106103105761030f6111ec565b5b906000526020600020906005020160040160009054906101000a900460ff1660ff1614610372576040517f08c379a000000000000000000000000000000000000000000000000000000000815260040161036990611267565b60405180910390fd5b3373ffffffffffffffffffffffffffffffffffffffff16600260008473ffffffffffffffffffffffffffffffffffffffff1673ffffffffffffffffffffffffffffffffffffffff16815260200190815260200160002082815481106103da576103d96111ec565b5b906000526020600020906005020160040160019054906101000a900473ffffffffffffffffffffffffffffffffffffffff1673ffffffffffffffffffffffffffffffffffffffff1614610462576040517f08c379a0000000000000000000000000000000000000000000000000000000008152600401610459906112f9565b60405180910390fd5b6003600260003373ffffffffffffffffffffffffffffffffffffffff1673ffffffffffffffffffffffffffffffffffffffff16815260200190815260200160002082815481106104b5576104b46111ec565b5b906000526020600020906005020160040160006101000a81548160ff021916908360ff16021790555060003390508073ffffffffffffffffffffffffffffffffffffffff166108fc600260008673ffffffffffffffffffffffffffffffffffffffff1673ffffffffffffffffffffffffffffffffffffffff168152602001908152602001600020848154811061054e5761054d6111ec565b5b9060005260206000209060050201600301549081150290604051600060405180830381858888f1935050505015801561058b573d6000803e3d6000fd5b50505050565b60001515600160003373ffffffffffffffffffffffffffffffffffffffff1673ffffffffffffffffffffffffffffffffffffffff16815260200190815260200160002060010160009054906101000a900460ff16151514610627576040517f08c379a000000000000000000000000000000000000000000000000000000000815260040161061e90611365565b60405180910390fd5b604051806040016040528082815260200160011515815250600160003373ffffffffffffffffffffffffffffffffffffffff1673ffffffffffffffffffffffffffffffffffffffff16815260200190815260200160002060008201518160000190816106939190610fe2565b5060208201518160010160006101000a81548160ff02191690831515021790555090505050565b6001600260003373ffffffffffffffffffffffffffffffffffffffff1673ffffffffffffffffffffffffffffffffffffffff168152602001908152602001600020828154811061070d5761070c6111ec565b5b906000526020600020906005020160040160009054906101000a900460ff1660ff161461076f576040517f08c379a000000000000000000000000000000000000000000000000000000000815260040161076690611267565b60405180910390fd5b60028060003373ffffffffffffffffffffffffffffffffffffffff1673ffffffffffffffffffffffffffffffffffffffff16815260200190815260200160002082815481106107c1576107c06111ec565b5b906000526020600020906005020160040160006101000a81548160ff021916908360ff16021790555050565b600015156000803373ffffffffffffffffffffffffffffffffffffffff1673ffffffffffffffffffffffffffffffffffffffff16815260200190815260200160002060010160009054906101000a900460ff16151514610882576040517f08c379a0000000000000000000000000000000000000000000000000000000008152600401610879906113d1565b60405180910390fd5b6040518060400160405280828152602001600115158152506000803373ffffffffffffffffffffffffffffffffffffffff1673ffffffffffffffffffffffffffffffffffffffff16815260200190815260200160002060008201518160000190816108ed9190610fe2565b5060208201518160010160006101000a81548160ff02191690831515021790555090505050565b6000604051905090565b600080fd5b600080fd5b600080fd5b600080fd5b6000601f19601f8301169050919050565b7f4e487b7100000000000000000000000000000000000000000000000000000000600052604160045260246000fd5b61097b82610932565b810181811067ffffffffffffffff8211171561099a57610999610943565b5b80604052505050565b60006109ad610914565b90506109b98282610972565b919050565b600067ffffffffffffffff8211156109d9576109d8610943565b5b6109e282610932565b9050602081019050919050565b82818337600083830152505050565b6000610a11610a0c846109be565b6109a3565b905082815260208101848484011115610a2d57610a2c61092d565b5b610a388482856109ef565b509392505050565b600082601f830112610a5557610a54610928565b5b8135610a658482602086016109fe565b91505092915050565b600067ffffffffffffffff821115610a8957610a88610943565b5b610a9282610932565b9050602081019050919050565b6000610ab2610aad84610a6e565b6109a3565b905082815260208101848484011115610ace57610acd61092d565b5b610ad98482856109ef565b509392505050565b600082601f830112610af657610af5610928565b5b8135610b06848260208601610a9f565b91505092915050565b6000819050919050565b610b2281610b0f565b8114610b2d57600080fd5b50565b600081359050610b3f81610b19565b92915050565b600073ffffffffffffffffffffffffffffffffffffffff82169050919050565b6000610b7082610b45565b9050919050565b610b8081610b65565b8114610b8b57600080fd5b50565b600081359050610b9d81610b77565b92915050565b600080600080600060a08688031215610bbf57610bbe61091e565b5b600086013567ffffffffffffffff811115610bdd57610bdc610923565b5b610be988828901610a40565b955050602086013567ffffffffffffffff811115610c0a57610c09610923565b5b610c1688828901610ae1565b945050604086013567ffffffffffffffff811115610c3757610c36610923565b5b610c4388828901610ae1565b9350506060610c5488828901610b30565b9250506080610c6588828901610b8e565b9150509295509295909350565b60008060408385031215610c8957610c8861091e565b5b6000610c9785828601610b8e565b9250506020610ca885828601610b30565b9150509250929050565b600060208284031215610cc857610cc761091e565b5b600082013567ffffffffffffffff811115610ce657610ce5610923565b5b610cf284828501610a40565b91505092915050565b600060208284031215610d1157610d1061091e565b5b6000610d1f84828501610b30565b91505092915050565b600082825260208201905092915050565b7f4574686572732073656e64206d7573742062652067726561746572207468616e60008201527f206f7220657175616c20746f20616d6f756e7400000000000000000000000000602082015250565b6000610d95603383610d28565b9150610da082610d39565b604082019050919050565b60006020820190508181036000830152610dc481610d88565b9050919050565b600081519050919050565b7f4e487b7100000000000000000000000000000000000000000000000000000000600052602260045260246000fd5b60006002820490506001821680610e1d57607f821691505b602082108103610e3057610e2f610dd6565b5b50919050565b60008190508160005260206000209050919050565b60006020601f8301049050919050565b600082821b905092915050565b600060088302610e987fffffffffffffffffffffffffffffffffffffffffffffffffffffffffffffffff82610e5b565b610ea28683610e5b565b95508019841693508086168417925050509392505050565b6000819050919050565b6000610edf610eda610ed584610b0f565b610eba565b610b0f565b9050919050565b6000819050919050565b610ef983610ec4565b610f0d610f0582610ee6565b848454610e68565b825550505050565b600090565b610f22610f15565b610f2d818484610ef0565b505050565b5b81811015610f5157610f46600082610f1a565b600181019050610f33565b5050565b601f821115610f9657610f6781610e36565b610f7084610e4b565b81016020851015610f7f578190505b610f93610f8b85610e4b565b830182610f32565b50505b505050565b600082821c905092915050565b6000610fb960001984600802610f9b565b1980831691505092915050565b6000610fd28383610fa8565b9150826002028217905092915050565b610feb82610dcb565b67ffffffffffffffff81111561100457611003610943565b5b61100e8254610e05565b611019828285610f55565b600060209050601f83116001811461104c576000841561103a578287015190505b6110448582610fc6565b8655506110ac565b601f19841661105a86610e36565b60005b828110156110825784890151825560018201915060208501945060208101905061105d565b8683101561109f578489015161109b601f891682610fa8565b8355505b6001600288020188555050505b505050505050565b600081519050919050565b60008190508160005260206000209050919050565b601f821115611115576110e6816110bf565b6110ef84610e4b565b810160208510156110fe578190505b61111261110a85610e4b565b830182610f32565b50505b505050565b611123826110b4565b67ffffffffffffffff81111561113c5761113b610943565b5b6111468254610e05565b6111518282856110d4565b600060209050601f8311600181146111845760008415611172578287015190505b61117c8582610fc6565b8655506111e4565b601f198416611192866110bf565b60005b828110156111ba57848901518255600182019150602085019450602081019050611195565b868310156111d757848901516111d3601f891682610fa8565b8355505b6001600288020188555050505b505050505050565b7f4e487b7100000000000000000000000000000000000000000000000000000000600052603260045260246000fd5b7f50726f6a656374206964206973206e6f742076616c6964000000000000000000600082015250565b6000611251601783610d28565b915061125c8261121b565b602082019050919050565b6000602082019050818103600083015261128081611244565b9050919050565b7f596f7520617265206e6f7420617574686f72697a656420746f20636f6d706c6560008201527f746520746869732070726f6a6563740000000000000000000000000000000000602082015250565b60006112e3602f83610d28565b91506112ee82611287565b604082019050919050565b60006020820190508181036000830152611312816112d6565b9050919050565b7f456d706c6f79657220616c726561647920726567697374657265642100000000600082015250565b600061134f601c83610d28565b915061135a82611319565b602082019050919050565b6000602082019050818103600083015261137e81611342565b9050919050565b7f467265656c616e63657220616c72656164792072656769737465726564210000600082015250565b60006113bb601e83610d28565b91506113c682611385565b602082019050919050565b600060208201905081810360008301526113ea816113ae565b905091905056fea26469706673582212206d8435b11e0446bf11902b13470ed835f32db45993622e1376943693bdf7e40764736f6c63430008110033",
  "immutableReferences": {},
  "source": "// SPDX-License-Identifier: MIT\r\npragma solidity ^0.8.0;\r\n\r\ncontract Cryptolance {\r\n\r\n    struct Freelancer {\r\n        string email;\r\n        bool isRegistered;\r\n        // other data\r\n        \r\n    }\r\n\r\n    struct Employer {\r\n        string email;\r\n        bool isRegistered;\r\n        // other data\r\n    }\r\n\r\n    struct Project {\r\n        string title;\r\n        bytes ipfsDescription;\r\n        bytes ipfsFiles;\r\n        uint256 amount;\r\n        /*\r\n            status = 0, Mapping-check\r\n            status = 1, In-progress\r\n            status = 2, Completed - I\r\n            status = 3, Completed - II\r\n        */\r\n        uint8 status;\r\n        address awardedTo;\r\n    }\r\n\r\n    mapping(address => Freelancer) freelancers;\r\n    mapping(address => Employer) employers;\r\n    mapping(address => Project[]) projects;\r\n\r\n    modifier onlyRegisteredFreelancer (address addr) {\r\n        require(\r\n            freelancers[addr].isRegistered == true,\r\n            \"Freelancer not registered\"\r\n        );\r\n        _;\r\n    }\r\n\r\n    modifier onlyRegisteredEmployer (address addr) {\r\n        require(\r\n            employers[addr].isRegistered == true,\r\n            \"Employer not registered\"\r\n        );\r\n        _;\r\n    }\r\n\r\n    function registerFreelancer(string memory email) external {\r\n        require(\r\n            freelancers[msg.sender].isRegistered == false,\r\n            \"Freelancer already registered!\"\r\n        );\r\n        freelancers[msg.sender] = Freelancer(email, true);\r\n    }\r\n\r\n    function registerEmployer(string memory email) external {\r\n        require(\r\n            employers[msg.sender].isRegistered == false,\r\n            \"Employer already registered!\"\r\n        );\r\n        employers[msg.sender] = Employer(email, true);\r\n    }\r\n\r\n    function addProject(\r\n        string memory title,\r\n        bytes memory ipfsDescription,\r\n        bytes memory ipfsFiles,\r\n        uint256 amount,\r\n        address awardedTo\r\n    ) external payable /** onlyRegisteredFreelancer(awardedTo) onlyRegisteredEmployer(msg.sender) */ {\r\n        \r\n        require(\r\n            msg.value >= amount,\r\n            \"Ethers send must be greater than or equal to amount\"\r\n        );\r\n\r\n        projects[msg.sender].push(Project(title, ipfsDescription, ipfsFiles, amount, 1, awardedTo));\r\n    }\r\n\r\n    function releasePayment(uint256 projectId) external {\r\n        require(\r\n            projects[msg.sender][projectId].status == 1,\r\n            \"Project id is not valid\"\r\n        );\r\n        projects[msg.sender][projectId].status = 2;\r\n    }\r\n\r\n    function completeProject(address employer, uint256 projectId) external {\r\n        require(\r\n            projects[employer][projectId].status == 2,\r\n            \"Project id is not valid\"\r\n        );\r\n\r\n        require(projects[employer][projectId].awardedTo == msg.sender,\r\n            \"You are not authorized to complete this project\"\r\n        );\r\n\r\n        projects[msg.sender][projectId].status = 3;\r\n        address payable receiver = payable(msg.sender);\r\n        receiver.transfer(projects[employer][projectId].amount);\r\n    }\r\n}",
  "sourcePath": "C:\\Users\\Admin\\Downloads\\cryptolance\\client\\truffle\\contracts\\Cryptolance.sol",
  "compiler": {
    "name": "solc",
    "version": "0.8.17+commit.8df45f5f.Emscripten.clang"
  },
  "schemaVersion": "3.4.10",
  "updatedAt": "2022-11-04T17:51:26.911Z",
  "networkType": "ethereum",
  "devdoc": {
    "kind": "dev",
    "methods": {},
    "version": 1
  },
  "userdoc": {
    "kind": "user",
    "methods": {},
    "version": 1
  }
}